S0140000626C696E6B626974776973652E7372656309
S11300000C9434000C943E000C943E000C943E007E
S11300100C943E000C943E000C943E000C943E0064
S11300200C943E000C943E000C943E000C943E0054
S11300300C943E000C943E000C943E000C943E0044
S11300400C943E000C943E000C943E000C943E0034
S11300500C943E000C943E000C943E000C943E0024
S11300600C943E000C943E0011241FBECFEFD8E048
S1130070DEBFCDBF0E9440000C94A1000C94000090
S113008084B1806284B984B1806184B985B18062AD
S113009085B985B1806185B92FEF83E294EF215052
S11300A080409040E1F700C0000085B18F7D85B9A4
S11300B085B18F7E85B92FEF83E294EF2150804084
S11300C09040E1F700C0000085B1806285B985B138
S11300D08F7E85B92FEF83E294EF215080409040CA
S11300E0E1F700C0000085B18F7D85B985B18F7EB1
S11300F085B92FEF83E294EF215080409040E1F7DF
S113010000C0000085B1806185B985B18F7D85B956
S11301102FEF83E294EF215080409040E1F700C03C
S1130120000085B18F7D85B985B18F7E85B92FEFAC
S113013083E294EF215080409040E1F700C000003A
S1090140A5CFF894FFCFE7
S9030000FC
